:100000000C94E4000C940C010C940C010C940C0165
:100010000C940C010C940C010C940C010C940C012C
:100020000C940C010C940C010C9453070C942D08A7
:100030000C940C010C940C010C940C010C940C010C
:100040000C940C010C940C010C940C010C940C01FC
:100050000C940C010C940C010C940C010C944F0D9D
:100060000C940C010C940C010C940C010C940C01DC
:100070000C940C010C940C010C940C010C940C01CC
:100080000C940C010C940C010C940C010C940C01BC
:100090000C940C010C940C010C940C010C940C01AC
:1000A0000C940C010C940C010C940C01EA0AED0A5E
:1000B000DC0AE00AE60A0E0B0E0B0E0BF10AF50A3B
:1000C000F90AFF0A030B0E0B090B080B00020202D0
:1000D00001000904000001020200000524001001D3
:1000E0000524010101042402060524060001070578
:1000F000810310004009040100020A000000070506
:1001000002024000000705830240000004030904C6
:1001100012010002EF0201404F1B06920001010292
:100120000301537061726B46756E00537061726BA0
:1001300046756E2050726F204D6963726F0000002B
:100140000000240027002A002D00300000000000DD
:10015000250028002B002E003100000000002300A5
:10016000260029002C002F000404040404030405C5
:100170000202020204030202020206060606060644
:10018000040402020204040408020110408040102A
:1001900020408040800802040180402010020110AD
:1001A0008010204040200000000200090F000003E2
:1001B0000401000C0000000000000000000000002E
:1001C00000000000D60DA70F11241FBECFEFDAE00C
:1001D000DEBFCDBF22E0A2EFB1E001C01D92AD3F76
:1001E000B207E1F711E0A0E0B1E0E0ECF4E202C018
:1001F00005900D92A23FB107D9F710E0C3EED0E011
:1002000004C02197FE010E942410C23ED107C9F705
:100210000E94D90E0C9453120C94000080E090E0E0
:10022000089580E00895FC0182818F5BFB0180834B
:1002300081E00895643028F4FC01E60FF11D868109
:1002400008958FEF0895DC01ED91FC91048CF58DFC
:10025000E02D41E00994DC01ED91FC91048CF58DD9
:10026000E02D40E00994FC0187819085442359F0FA
:1002700041E050E002C0440F551F6A95E2F79C012F
:10028000242B352B0BC021E030E002C0220F331F9E
:100290006A95E2F720953095282339233087278304
:1002A000089521E030E002C0220F331F6A95E2F783
:1002B000FC01878190852823392381E0232B09F4D1
:1002C00080E00895FC012781308581859285822711
:1002D00093270895EF92FF921F93CF93DF93EC0142
:1002E000162FA881B9815C96ED90FC905D97ED91F9
:1002F000FC910995482F612FCE01F701DF91CF9135
:100300001F91FF90EF900994CF93DF931F92CDB789
:10031000DEB7DC01ED91FC910688F789E02D698359
:10032000099521E030E0698102C0220F331F6A95F0
:10033000E2F72823392381E0232B09F480E00F9092
:10034000DF91CF9108958CE492E00895CF93DF93ED
:10035000DC011496ED91FC911597309739F11696C2
:100360008C91882319F1481708F5BAE04B9FE00DEE
:10037000F11D1124DB0112968C9112978283149641
:10038000CD91DC911597A481B5819A818B811296CC
:100390009C93129713968C93DB011696EF01269689
:1003A0003A968D918993CE17DF07D9F7DF91CF91D8
:1003B0000895FC0184819581009751F026812223C4
:1003C00039F0621728F42AE0629F800D911D1124F4
:1003D0000895462FDC01ED91FC910480F581E02D1C
:1003E00063E00994462FDC01ED91FC910480F581D6
:1003F000E02D62E00994462FDC01ED91FC91048030
:10040000F581E02D61E00994462FDC01ED91FC912E
:100410000480F581E02D60E00994DC01ED91FC9110
:100420000680F781E02D63E00994DC01ED91FC91F9
:100430000280F381E02D63E00994DC01ED91FC91F1
:100440000680F781E02D62E00994DC01ED91FC91DA
:100450000280F381E02D62E00994DC01ED91FC91D2
:100460000680F781E02D61E00994DC01ED91FC91BB
:100470000280F381E02D61E00994DC01ED91FC91B3
:100480000680F781E02D60E00994DC01ED91FC919C
:100490000280F381E02D60E009940F931F93CF93C6
:1004A000DF93EC01EC81FD810190F081E02D06816C
:1004B0001781E881F9810484F585E02D0995682F7D
:1004C0008C819D81F801DF91CF911F910F9109944B
:1004D000EF92FF920F931F93CF93DF931F92CDB7AD
:1004E000DEB77C01DC011496ED91FC91159701902B
:1004F000F081E02D04811581ED91FC910484F58556
:10050000E02D498309954981682FF7018481958100
:10051000F8010F90DF91CF911F910F91FF90EF9015
:1005200009940F931F93CF93DF93EC01EC81FD812E
:100530000190F081E02D00811181E881F98104842E
:10054000F585E02D0995682F8C819D81F801DF915B
:10055000CF911F910F910994DC01ED91FC910190D5
:10056000F081E02D0994DC0114968D919C911597F2
:10057000DC01ED91FC910084F185E02D0994DC0112
:10058000ED91FC910190F081E02D0994CF93DF93E0
:10059000EC0161E08B850E947A0C8BE290E0019780
:1005A000F1F760E08B850E947A0C83E190E001977F
:1005B000F1F7DF91CF910895CF92DF92EF92FF9202
:1005C0000F931F93CF93DF938C017A01EB01C12C22
:1005D000D12CCE14DF0491F12C813D81F80184816E
:1005E00095812817390729F5888199816081718162
:1005F000009719F061157105C1F46115710551F08D
:10060000232B51F0FB01208130E088279927821BA2
:10061000930B0DC0009711F4C60112C0232BE1F318
:10062000FC019081892F90E002C00E944312892B27
:1006300099F3FFEFCF1ADF0A2696CBCF8FEF9FEF0C
:10064000DF91CF911F910F91FF90EF90DF90CF90AE
:1006500008958DE499E4A4E4B9E4FB0180839183D7
:10066000A283B38384E00895CF92DF92EF92FF924A
:100670000F931F93CF93DF93CDB7DEB7C456D10945
:100680000FB6F894DEBF0FBECDBF6C01DB019C91AD
:100690009E5F9C93FE01319684E6DF011D928A9550
:1006A000E9F788E089838BE08A8322E02C8391E05C
:1006B0009D839E8339E0398774E07A879E879F8780
:1006C0003A8B44E24B8B9C8B00E011E01E8B0D8B30
:1006D00089E0E82EF12CF88EEF8A998F3B8F7C8F82
:1006E0002F8F98A353E059A387E08CA34DA39EA31B
:1006F00018A70FA301E410E01AA709A786E08BA7AB
:100700004CA72DA79EA79FA789AB4AAB2BAB2CABC1
:100710002DAB3FAB48AF59AF9AAF5BAF9CAF2DAF9E
:100720009EAF21963FAF219722964FAF22972396F7
:100730005FAF239724962FAF249725967FAF2597F9
:1007400026969FAF269727969FAF279728969FAF0D
:1007500028972A963FAF2A9745E02B964FAF2B97C5
:100760002D962FAF2D9760E470E02F967FAF6EAF80
:100770002F9763964FAF639785E264968FAF649728
:1007800065969FAF659766969FAF669767969FAF92
:10079000679768963FAF689769964FAF69976B9672
:1007A0002FAF6B976D967FAF6EAF6D97A1964FAFE2
:1007B000A197A2968FAFA297A3969FAFA397A49657
:1007C0009FAFA497A5965FAFA597D60112969C916F
:1007D00012979B839B879F5F9A8F9D8F13968C9117
:1007E0002C968FAF2C978F5F80686A968FAF6A9731
:1007F00044E650E0BF0180E00E94D407CC59DF4FAF
:100800000FB6F894DEBF0FBECDBFDF91CF911F9121
:100810000F91FF90EF90DF90CF900895CF93DF93EB
:1008200000D000D0CDB7DEB7FC01962F82816817CB
:10083000B8F5228D338D2115310529F0D901A60F88
:10084000B11D2C9101C020E0648D758D611571057D
:1008500029F0DB01A90FB11D8C9101C084E6A08DA8
:10086000B18D1097E9F0692F70E0068CF78DE02DBF
:10087000A60FB71F9C91442321F039E039832069EA
:1008800003C038E0398320682A839B838C8383816B
:1008900044E050E0BE016F5F7F4F8F5F0E94AD0B61
:1008A0000F900F900F900F90DF91CF910895DC0182
:1008B0005E96ED91FC915F9783818F5F0C94490761
:1008C000CF93DF93EC018F8198859A87898718866B
:1008D0001F82F894E881F9810484F585E02DCE012A
:1008E0000995E881F9810488F589E02DCE01099503
:1008F0007894E881F9810088F189E02D60E0CE01EB
:100900000995BC0180E090E04AE00E9479068BEBFB
:1009100091E00E9461066F81788580E090E042E07E
:100920000E9479068DEB91E00E946106E881F981D1
:100930000088F189E02D60E0CE010995892B09F44A
:100940005EC0E881F9810088F189E02D60E0CE0188
:100950000995DC01ED91FC910684F785E02D099560
:1009600090E00E94E1068BEB91E00E946106E88135
:10097000F9810088F189E02D60E0CE010995DC0164
:10098000ED91FC910288F389E02D099590E00E9499
:10099000E1068BEB91E00E946106E881F981008815
:1009A000F189E02D60E0CE010995DC01ED91FC912B
:1009B0000688F789E02D099590E00E94E1068BEB0F
:1009C00091E00E946106E881F9810088F189E02DBB
:1009D00060E0CE010995DC01ED91FC91028CF38D74
:1009E000E02D0995682F70E080E090E04AE00E94D9
:1009F00079068DEB91E0DF91CF910C946106DF9148
:100A0000CF9108951F93CF93DF93EC010E94600470
:100A100010E08A81181798F4E88DF98DE10FF11D27
:100A20008081803851F0E881F9810680F781E02DDE
:100A3000612FCE01099581110CC01F5FEACFE881BB
:100A4000F981008CF18DE02DCE01DF91CF911F91C6
:100A50000994E881F981028CF38DE02D612FCE019C
:100A60000995EBCFCF92DF92EF92FF921F93CF9336
:100A7000DF9300D000D000D0CDB7DEB77C01DC0121
:100A80001496ED91FC9115970190F081E02DC284B0
:100A9000D384CE0101960E942F07BE016F5F7F4F66
:100AA000F70184819581F60109956C0189819A810C
:100AB0000E94D310D7FC17C010E0F70182811817ED
:100AC00090F4D701ED91FC910484F585E02D612F20
:100AD000C701099590E08C159D0519F4C12ED12C04
:100AE00002C01F5FEACFC60126960FB6F894DEBF9C
:100AF0000FBECDBFDF91CF911F91FF90EF90DF90A0
:100B0000CF900895EF92FF920F931F93CF93DF93AF
:100B1000CDB7DEB728970FB6F894DEBF0FBECDBFB6
:100B2000DC0112960C91129710E0ED91FC9100847B
:100B3000F185E02D6F83788709957C016F81788539
:100B4000CE0101960E942F07A801B701CE010196A0
:100B50000E94DC028C0189819A810E94D310C80115
:100B600028960FB6F894DEBF0FBECDBFDF91CF91B0
:100B70001F910F91FF90EF900895CF93DF93EC01B9
:100B800082E08C838D83CE010A969F838E831986A3
:100B900018868DE191E09983888380E88A8781E8CF
:100BA0008B870E94660CFC0121818C8190E0820F72
:100BB000911D089774F5A281B381109719F4D3831E
:100BC000C2830CC018968D919C911997009711F0D3
:100BD000DC01F8CF1996DC93CE93189780818A8335
:100BE00081818B8390818D81890F808380E09C81BE
:100BF000891778F4AE81BF81A80FB11D9C91A181A6
:100C0000B0E0A050BF4F9C9391819F5F91838F5F15
:100C1000EECFDF91CF910895EF92FF920F931F9344
:100C2000CF93DF93EC017B018A0188819981009742
:100C300029F02A813B8124173507F8F4B8016F5F4A
:100C40007F4F0E946B11009759F0998388831B8313
:100C50000A832C813D81232B81F4FC0110820DC07D
:100C600088819981009711F00E94D310198218820F
:100C70001D821C821B821A8207C01D830C83B70150
:100C8000888199810E944C12CE01DF91CF911F91F2
:100C90000F91FF90EF900895FC0111821082138252
:100CA0001282158214826115710551F0FB010190C9
:100CB0000020E9F73197AF01461B570B0C940C0647
:100CC0000895BC01009791F0FC0101900020E9F724
:100CD0003197AF01481B590BE091FC01F091FD01E8
:100CE0000280F381E02D8CEF91E0099480E090E0A8
:100CF00008958F929F92AF92BF920F931F93CF93BD
:100D0000DF93CDB7DEB7A1970FB6F894DEBF0FBE65
:100D1000CDBF19A2423008F44AE08E010F5D1F4F8B
:100D2000842E912CA12CB12CA50194010E940210BB
:100D3000E62FB901CA0101501109EA3014F4E05D4F
:100D400001C0E95CD801EC93232B242B252B61F700
:100D5000C8010E946106A1960FB6F894DEBF0FBECF
:100D6000CDBFDF91CF911F910F91BF90AF909F901A
:100D70008F900895CF92DF92EF92FF92CF93DF93FF
:100D80006B017C01E091FC01F091FD010190F0818B
:100D9000E02D6DE28CEF91E00995EC016627772755
:100DA000CB016C197D098E099F094AE00E947906E2
:100DB0008C0F9D1FDF91CF91FF90EF90DF90CF9030
:100DC0000895BC01990F880B990B97FD0C94BA06F6
:100DD0004AE00C947906CF92DF92EF92FF920E9444
:100DE0002A0D6B017C010E942A0DDC01CB018C19BC
:100DF0009D09AE09BF09883E9340A105B10598F34E
:100E0000FF90EF90DF90CF900895FC018091FB015F
:100E1000811103C08FEF9FEF08959FB7F89482E090
:100E20008093E9002091F20030E01216130614F4CA
:100E300021E030E02115310559F0289884E68093AF
:100E4000FA018091F10080838091F200882319F0EB
:100E50009FBFC90108958BE68093E800F9CFFB019D
:100E6000DC0111961C921E9213961C921E921297F0
:100E700015961C921E9214978617970749F0608169
:100E800071816115710521F0448155810C940C0626
:100E900008958093E9008091F200882319F08AE395
:100EA0008093E80008951F920F920FB60F921124BD
:100EB0002F933F934F935F936F937F938F939F9362
:100EC000AF93BF93CF93EF93FF93C091E1008091D5
:100ED000E100837F8093E100C3FF0FC01092E9001F
:100EE00081E08093EB001092EC0082E38093ED00B0
:100EF0001092FB0188E08093F000C2FF19C083E0EC
:100F00000E9449078091F901882339F08091F90105
:100F100081508093F901882389F18091FA01882317
:100F200039F08091FA0181508093FA01882341F1D0
:100F3000C4FF10C08091E2008E7E81608093E20049
:100F40008091E1008F7E8093E1008091F8018E7E98
:100F5000806111C0C0FF16C08091E2008E7E80616A
:100F60008093E2008091E1008E7E8093E100809189
:100F7000F8018E7E81608093F80104C05D9ACDCF28
:100F8000289AD6CFFF91EF91CF91BF91AF919F91CA
:100F90008F917F916F915F914F913F912F910F9022
:100FA0000FBE0F901F901895DF92EF92FF920F9354
:100FB0001F93CF93DF93D82E8A017B01E40EF51E99
:100FC000EB01CE15DF0571F0D7FE03C0FE01849161
:100FD00001C088810E947F0B21968111F2CF8FEF93
:100FE0009FEF01C0C801DF91CF911F910F91FF903A
:100FF000EF90DF9008950F931F93CF93DF931F928D
:10100000CDB7DEB782E0898342E450E06AEC70E05D
:1010100080E80E94D4070E94660CDC0112960D91B4
:101020001C9113970115110569F0D801ED91FC9100
:101030000280F381E02DBE016F5F7F4FC8010995EB
:1010400097FF07C089810F90DF91CF911F910F917A
:101050000895F80100851185E5CF1F920F920FB614
:101060000F921124CF92DF92EF92FF920F931F9372
:101070002F933F934F935F936F937F938F939F93A0
:10108000AF93BF93EF93FF93CF93DF93CDB7DEB7CB
:101090006C97DEBFCDBF1092E9008091E80083FF1E
:1010A000EDC168E0CE0145960E94590C82EF809315
:1010B000E8008D8987FF05C09091E80090FFFCCF84
:1010C00003C09EEF9093E800982F907609F0C6C079
:1010D0009E892F89188D91110CC0803829F4809138
:1010E000F7018093F10002C01092F1001092F1001C
:1010F00048C1422F50E0512B913051F4811141C130
:101100004130510509F03DC18091F7018D7F0BC041
:10111000933061F4811135C14130510509F031C17D
:101120008091F70182608093F7012BC1953041F4E3
:101130008091E80080FFFCCF20682093E30021C16C
:10114000963009F05FC0EB8CFC8C1092E900109295
:10115000F5011092F401123091F51092F301109202
:10116000F2010E94FB0799E0BE016F5F7F4FDB0138
:10117000E92F1D92EA95E9F799831A8391E09E83FE
:1011800090EA98879AEF99872091F4013091F501C0
:10119000275F3F4F3C832B838D831092E900109291
:1011A000F5011092F401F092F301E092F20149E0AE
:1011B00050E080E00E94D4070E94FB07E2C0F0925A
:1011C000F301E092F2010E94660CDC011296ED90B0
:1011D000FC901397E114F10409F4C0C0D701ED911C
:1011E000FC910480F581E02DBE016B5E7F4FC7014D
:1011F0000995009719F00CF0C4C0C7C0F701E0844E
:10120000F184E8CF973009F4C0C0983021F481E030
:101210008093F100B6C0993009F0B3C0837009F033
:10122000B4C0E1E0F1E081E021E036E39081992370
:1012300061F08093E9002093EB0091919093EC0092
:101240003093ED008F5F873089F78EE78093EA0057
:101250001092EA008F898093FB0193C08B8D9C8D47
:101260001092E9001092F5011092F4019093F301AD
:101270008093F201898D811156C08E899D89913AA2
:1012800059F4813209F081C047E050E06BE071E031
:1012900080E00E94D40775C0913209F076C0833295
:1012A00089F4888D90E0982F88272F89822BA0E0E1
:1012B000B0E08093070190930801A0930901B093D7
:1012C0000A015FC0803269F48091E80082FFFCCFA0
:1012D00067E08BE091E00E94590C8BEF8093E8006F
:1012E00006C0823209F04DC08F898093120180912F
:1012F000F601882319F0EEEFFAE002C0E0E0F8E032
:1013000080910B0190910C01A0910D01B0910E0103
:10131000803B9440A105B10509F07BC0809112018A
:1013200080FF93C076C00E94660CDC0112960D917E
:101330001C9113970115110541F1D801ED91FC9114
:101340000190F081E02DBE016B5E7F4FC8010995D1
:10135000811117C0F80100851185ECCF113009F417
:101360004EC0133091F48F89882309F445C0823030
:1013700081F440E862E18BE291E00E94990D8823BC
:1013800021F08EEF8093E80079C081E28093EB003A
:1013900075C0813029F440E868E082E291E0EDCF49
:1013A000833099F70E94660CDC011296ED90FC9058
:1013B00013978E010F5F1F4F6801E114F10479F05C
:1013C000D701ED91FC910680F781E02DB801C701AE
:1013D0000995080F111DF701E084F184EECFD801C3
:1013E0001C92F60101900020E9F73197BF016C19BA
:1013F0007D0940E0C601C1CF6CE071E002C060E150
:1014000071E06115710509F2FB01449150E080E83B
:1014100040CF0FB6F894A8958091600088618093C2
:101420006000109260000FBEA895EE3F2AE0F20720
:1014300039F08091FE0A9091FF0A91838083A1CFB9
:101440001092FF0A1092FE0A9CCFEE3F8AE0F80746
:1014500031F0808191819093FF0A8093FE0A87E7A3
:1014600097E7918380839BE088E10FB6F894A89575
:10147000809360000FBE9093600083CF6C960FB690
:10148000F894DEBF0FBECDBFDF91CF91FF91EF91FA
:10149000BF91AF919F918F917F916F915F914F918C
:1014A0003F912F911F910F91FF90EF90DF90CF9080
:1014B0000F900FBE0F901F9018952FB7F89487705C
:1014C0008093E9009091E800892F807295FF04C015
:1014D0009091F20080E4891B2FBF0895CF92DF9294
:1014E000EF92FF920F931F93CF93DF936C017A01DA
:1014F0008B01C0E0D0E0CE15DF0589F0D8016D91F9
:101500008D01D601ED91FC910190F081E02DC60195
:101510000995892B11F47E0102C02196ECCFC701F9
:10152000DF91CF911F910F91FF90EF90DF90CF90BF
:101530000895CF93DF931F92CDB7DEB76983DC01A7
:10154000ED91FC910280F381E02D41E050E0BE017D
:101550006F5F7F4F09950F90DF91CF91089583E0E2
:101560000E945D0A90E00895FC018485958597FDB1
:101570000BC09FB7F89482E08093E9008091F2005D
:101580009FBF90E0019608959FB7F89482E0809302
:10159000E9008091F2009FBF90E00895089580E0F7
:1015A00090E0089590E0FC013197EF30F105B0F53F
:1015B000EA5AFF4F0C942410809180008F7703C06B
:1015C000809180008F7D80938000089580918000BD
:1015D000877FF9CF84B58F7702C084B58F7D84BDB6
:1015E0000895809190008F7707C0809190008F7D43
:1015F00003C080919000877F809390000895809130
:10160000C0008F7703C08091C0008F7D8093C000A1
:1016100008958091C200877F8093C2000895CF9380
:10162000DF93282F30E0F901EA55FE4F8491F9014C
:10163000E957FE4FD491F901E859FE4FC491CC23EC
:1016400091F081110E94D20AEC2FF0E0EE0FFF1F03
:10165000E65AFE4FA591B491EC91ED2381E090E024
:1016600021F480E002C080E090E0DF91CF91089506
:1016700083E00C944907CF93DF931F92CDB7DEB779
:10168000FC018485958597FD05C02FEF3FEF3587D9
:1016900024870BC0CE0101960E940507019719F41B
:1016A000898190E002C08FEF9FEF0F90DF91CF9183
:1016B00008950F931F93CF93DF931F92CDB7DEB79B
:1016C0008C01FC018485958597FF0EC0CE010196A3
:1016D0000E940507019719F4298130E002C02FEF1D
:1016E0003FEFF80135872487F801848595850F90B1
:1016F000DF91CF911F910F9108950E943512409173
:10170000F4015091F5012091F2013091F30142175B
:101710005307B4F49091E8009570E1F39091E800DC
:1017200092FD19C08093F1008091F4019091F50130
:1017300001968F739927892B19F48EEF8093E80017
:101740008091F4019091F50101969093F5018093B9
:10175000F40181E0089580E008957F928F929F9236
:10176000AF92BF92CF92DF92EF92FF920F931F93AF
:10177000CF93DF93C82E8B017A018091FB018111F9
:1017800003C08FEF9FEF71C08091F80180FF05C00B
:101790008091E00082608093E000CE2DDF2DD12C7F
:1017A0008AEF882E8C2D8770B82E8C2D8072A82EF3
:1017B0008C2D8074982E9AE3792E209709F44EC0D0
:1017C0008C2D0E945D0A282F811106C08A948820E2
:1017D000C1F20E94EB06F1CF90E0C817D9070CF4D4
:1017E0002C2F3FB7F894B092E9008091E80085FF74
:1017F00033C0822F90E0C81BD90BAA2029F02150BA
:10180000A8F01092F100FBCFF801C7FE07C02150ED
:1018100058F044914093F1003196F9CF215020F0D7
:1018200041914093F100FACF080F191FDD2019F004
:101830007092E8000AC08091E80085FD08C07092AF
:10184000E800DD24D394209739F0D12C05C02097EF
:1018500019F491107092E8003FBFAFCFD110B0CF14
:101860005D9884E68093F901C701DF91CF911F91C4
:101870000F91FF90EF90DF90CF90BF90AF909F902F
:101880008F907F900895CF93DF93EC0180911201A8
:10189000882331F083E00E94AD0B1816190634F04E
:1018A00081E090E09B838A8380E090E0DF91CF919C
:1018B0000895615030F02091F100FC0120830196E1
:1018C000F8CF289884E68093FA0108958091F10278
:1018D00081110DC082E08093ED0284E08093EE02DE
:1018E0001092F0021092EF0281E08093F1028DEEEF
:1018F00092E008951F93CF93DF93282F30E0F901F2
:10190000EA55FE4F8491F901E957FE4FD491F90150
:10191000E859FE4FC491CC23C9F0162F81110E94C3
:10192000D20AEC2FF0E0EE0FFF1FE45BFE4FA59113
:10193000B4918FB7F894111105C09C91ED2FE095EB
:10194000E92302C0EC91ED2BEC938FBFDF91CF9197
:101950001F910895EF92FF920F931F93CF93DF9300
:10196000EC018D850E940F0B2F813885822B932BE4
:1019700098878F8301E010E083E1E82EF12C61E08D
:101980008C850E947A0CC7010197F1F78D850E9422
:101990000F0B002E02C0880F991F0A94E2F72F81C7
:1019A0003885822B932B98878F8360E08C850E94EB
:1019B0007A0CC7010197F1F70F5F1F4F0031110536
:1019C000F1F68F8198858095909598878F83DF9128
:1019D000CF911F910F91FF90EF900895CF93DF93D8
:1019E00090E0FC01E957FE4F2491FC01E859FE4FBD
:1019F0008491882361F190E0880F991FFC01E25CDB
:101A0000FE4FC591D491FC01E45BFE4FA591B491CA
:101A1000611109C09FB7F89488812095822388833B
:101A2000EC912E230BC0623061F49FB7F89438819B
:101A3000822F809583238883EC912E2B2C939FBF3C
:101A400006C08FB7F894E8812E2B28838FBFDF91D3
:101A5000CF9108953FB7F8948091E9029091EA02FE
:101A6000A091EB02B091EC0226B5A89B05C02F3FD8
:101A700019F00196A11DB11D3FBFBA2FA92F982FB4
:101A80008827820F911DA11DB11DBC01CD0142E02F
:101A9000660F771F881F991F4A95D1F708951F92E7
:101AA0000F920FB60F9211242F933F938F939F9312
:101AB000AF93BF938091E5029091E602A091E70277
:101AC000B091E8023091E40223E0230F2D3720F497
:101AD0000196A11DB11D05C026E8230F0296A11D88
:101AE000B11D2093E4028093E5029093E602A09357
:101AF000E702B093E8028091E9029091EA02A09196
:101B0000EB02B091EC020196A11DB11D8093E90298
:101B10009093EA02A093EB02B093EC02BF91AF91D5
:101B20009F918F913F912F910F900FBE0F901F901B
:101B30001895CF92DF92EF92FF920F931F93CF935E
:101B4000DF931F92CDB7DEB7182F062FE42E862F16
:101B5000880F8E5F99830E947F0B83E00E947F0B2A
:101B6000F12EC12E9981D92E8C2D8F19801798F4C2
:101B7000F601E7FE02C0849101C080810E947F0BC4
:101B8000182F80E00E947F0B8123FFEFCF1ADF0A1E
:101B90008111EACF01C081E00F90DF91CF911F91B9
:101BA0000F91FF90EF90DF90CF9008954F925F924A
:101BB0006F927F928F929F92AF92BF92CF92DF925D
:101BC000EF92FF920F931F93CF93DF93ECEFF1E02F
:101BD0001382128288EE93E0A0E0B0E084839583C4
:101BE000A683B78389E291E0918380838FEF9FEF93
:101BF0009587848780EC92E00E94BD0580ECC82E1A
:101C000082E0D82E8BE391E0F6019183808360EC33
:101C100071E08CE492E00E944C0662EC71E082E597
:101C200092E00E944C0664EC71E088E592E00E942C
:101C30004C066BEC71E08EE592E00E944C0661ED83
:101C400071E084E692E00E944C0664ED71E08AE661
:101C500092E00E944C0669ED71E080E792E00E94FC
:101C60004C066EED71E086E792E00E944C0664EE51
:101C700071E08CE792E00E944C0666EE71E082E82B
:101C800092E00E944C0668EE71E088E892E00E94C3
:101C90004C066AEE71E08EE892E00E944C0684EBFE
:101CA00092E00E94BD05CCECD2E09CE0492E4A8235
:101CB00001E00B838AED92E09D838C830E8318866E
:101CC0001F821A86198621E7622E21E0722E798200
:101CD000688288E08B8789E08C8737E0F32EFD8669
:101CE00014E0188B098BDB8BCA8B47E4842E41E010
:101CF000942E9F868E861C8B55E0552E5D8A66E05D
:101D0000A62EAE8AFF8A61E088E00E94EE0C61E0B8
:101D100089E00E94EE0C60E087E00E94EE0C8B856B
:101D2000BC84ED849B81C4E9D2E04A829B8322EA91
:101D300032E03D832C830E8318861F821A86198613
:101D4000798268828B87BC86ED86188B998BDB8BBA
:101D5000CA8B9F868E861C8B5D8AAE8AFF8A61E065
:101D60000E94EE0C61E08B2D0E94EE0C60E08E2D47
:101D70000E94EE0C89E991E09983888389E891E0DB
:101D8000998F888F1B8E1A8E1D8E1C8EDF8ECE8EA5
:101D9000DF91CF911F910F91FF90EF90DF90CF9047
:101DA000BF90AF909F908F907F906F905F904F907B
:101DB0000895789484B5826084BD84B5816084BDC3
:101DC00085B5826085BD85B5816085BD80916E00D9
:101DD000816080936E00109281008091810082600A
:101DE0008093810080918100816080938100809147
:101DF0008000816080938000809191008260809358
:101E00009100809191008160809391008091900079
:101E10008160809390008091C10084608093C100B4
:101E20008091C10082608093C1008091C100816077
:101E30008093C1008091C30081608093C300809132
:101E4000C00082608093C0008091C2008160809356
:101E5000C20080917A00846080937A0080917A0039
:101E6000826080937A0080917A00816080937A000A
:101E700080917A00806880937A001092FB01109222
:101E8000F7011092F8018091D70081608093D7000C
:101E900080EA8093D80089B5806189BD89B5826068
:101EA00089BD09B400FEFDCF0E94EB068091D800E9
:101EB0008F7C80618093D8008091E000807F809348
:101EC000E0008091E1008E7E8093E1008DE08093C0
:101ED000E200559A209AEEEFFFE7859194918B3FAF
:101EE0009C4D19F481E08093F6018FEF9FEF909362
:101EF0000902809308028CEE91E00E9461068DEB4E
:101F000091E00E94610620E0C0E8D0E08091960256
:101F1000281790F4E091AC02F091AD02E20FF11DB0
:101F20008081082E000C990B8B5B9F4FBE010E9495
:101F3000EE0F80832F5FEACFC0E0D0E084E992E02B
:101F40000E9402052097D1F30E940000F7CFCF93A3
:101F5000DF93C4E9D2E02697888199810E94D3104B
:101F600082E0CC34D807B9F7DF91CF9108952F9252
:101F70003F924F925F926F927F928F929F92AF9219
:101F8000BF92CF92DF92EF92FF920F931F93CF9366
:101F9000DF93CDB7DEB7CA1BDB0B0FB6F894DEBFFD
:101FA0000FBECDBF09942A88398848885F846E8423
:101FB0007D848C849B84AA84B984C884DF80EE806D
:101FC000FD800C811B81AA81B981CE0FD11D0FB676
:101FD000F894DEBF0FBECDBFED01089597FB072E2D
:101FE00016F4009407D077FD09D00E942A1007FC50
:101FF00005D03EF4909581959F4F08957095619519
:102000007F4F0895A1E21A2EAA1BBB1BFD010DC034
:10201000AA1FBB1FEE1FFF1FA217B307E407F50798
:1020200020F0A21BB30BE40BF50B661F771F881F74
:10203000991F1A9469F760957095809590959B010A
:10204000AC01BD01CF010895EE0FFF1F0590F49183
:10205000E02D0994AA1BBB1B51E107C0AA1FBB1F9F
:10206000A617B70710F0A61BB70B881F991F5A9524
:10207000A9F780959095BC01CD010895CF93DF938A
:102080008230910510F482E090E0E091FB02F09143
:10209000FC0220E030E0C0E0D0E0309711F1408158
:1020A000518148175907C0F04817590761F48281D8
:1020B0009381209719F09B838A832BC09093FC0215
:1020C0008093FB0226C02115310519F042175307F2
:1020D00018F49A01BE01DF01EF010280F381E02DC7
:1020E000DCCF2115310509F1281B390B24303105CE
:1020F00090F412968D919C9113976115710521F0C2
:10210000FB019383828304C09093FC028093FB02C3
:10211000FD01329644C0FD01E20FF31F81939193BC
:10212000225031092D933C933AC02091F90230910D
:10213000FA02232B41F420911501309116013093BE
:10214000FA022093F9022091130130911401211514
:10215000310541F42DB73EB7409117015091180158
:10216000241B350BE091F902F091FA02E217F30714
:10217000A0F42E1B3F0B2817390778F0AC014E5FF7
:102180005F4F2417350748F04E0F5F1F5093FA0238
:102190004093F9028193919302C0E0E0F0E0CF0117
:1021A000DF91CF9108950F931F93CF93DF93009703
:1021B00009F48CC0FC013297138212820091FB0259
:1021C0001091FC020115110581F420813181820FEB
:1021D000931F2091F9023091FA022817390779F5F7
:1021E000F093FA02E093F90271C0D80140E050E0A8
:1021F000AE17BF0750F412962D913C911397AD0185
:102200002115310509F1D901F3CF9D01DA0133839D
:10221000228360817181860F971F8217930769F46B
:10222000EC0128813981260F371F2E5F3F4F318304
:1022300020838A819B8193838283452B29F4F093A9
:10224000FC02E093FB0242C01396FC93EE931297BC
:10225000ED01499159919E01240F351FE217F307B3
:1022600071F480819181840F951F029611969C9341
:102270008E938281938113969C938E931297E0E0C4
:10228000F0E0D80112968D919C911397009719F068
:10229000F8018C01F6CF8D919C9198012E5F3F4FF4
:1022A000820F931F2091F9023091FA022817390703
:1022B00069F4309729F41092FC021092FB0202C0DC
:1022C000138212821093FA020093F902DF91CF91E8
:1022D0001F910F910895A0E0B0E0E1E7F1E10C94C7
:1022E000BB0FEC01009721F4CB010E943E10B8C057
:1022F000FC01E60FF71F9C0122503109E217F3079A
:1023000008F4ACC0D9010D911C911197061717075D
:10231000B0F00530110508F49FC0C8010497861776
:10232000970708F499C002501109061B170B019377
:1023300011936D937C93CF010E94D3108DC05B01EC
:10234000A01AB10A4C01800E911EA091FB02B0911F
:10235000FC0240E050E0E12CF12C109709F44AC057
:10236000A815B905D1F56D907C901197630182E0B5
:10237000C80ED11CCA14DB0480F1A3014A195B0901
:102380006A0182E0C80ED11C1296BC901297139677
:10239000AC91B5E0CB16D10440F0B282A383518357
:1023A0004083D9016D937C930AC00E5F1F4FC30118
:1023B000800F911FF90191838083EB2DFA2FE11497
:1023C000F10431F0D7011396FC93EE93129744C0B9
:1023D000F093FC02E093FB023FC08D919C9111971A
:1023E0004817590708F4AC017D0112960D90BC9175
:1023F000A02DB3CF8091F9029091FA02881599052A
:10240000E1F446175707C8F4809113019091140125
:10241000009741F48DB79EB7409117015091180174
:10242000841B950BE817F907C8F4F093FA02E093C0
:10243000F902F901718360830FC0CB010E943E1045
:102440007C01009759F0A801BE010E943A12CE010A
:102450000E94D310C70104C0CE0102C080E090E00A
:10246000CDB7DEB7EEE00C94D70F81E090E0F894A2
:102470000C945312FB01DC0102C001900D924150FB
:102480005040D8F70895FB01DC018D91019080192F
:102490000110D9F3990B0895FB01DC0101900D9215
:1024A0000020E1F7089510E0C3EED0E004C0FE0183
:1024B0000E9424102196C43ED107C9F7F894FFCF9B
:1024C00000C18081000000FFFFFFFF00E10000006D
:1024D0000000000000FD0280000000000011013437
:1024E000030E01290300000000990A430CAF0A38CB
:1024F0000BB40A3B0B590B00000000110134030E12
:10250000012903000000009102AC0268024D02B3F1
:102510000232051A0145023D0235022D0225021D37
:102520000215020D020402FB01F201E901000000A4
:10253000005101BF0233018401A3018205C602607C
:1025400004D901A601AA0C6201030A0201040809C8
:102550000B05070006000000005101BF0233018493
:1025600001A3018205C6020205D901A601AA0C62D7
:102570000157046A010E042B01230109000D0A0012
:102580004200590073656C65637400737461727402
:1025900000757000646F776E006C65667400726918
:1025A00067687400410058004C00520068656C6C0C
:0225B0006F00BA
:00000001FF
